{
  "_format": "hh-sol-artifact-1",
  "contractName": "PropertyManagment",
  "sourceName": "contracts/PropertyManagment.sol",
  "abi": [
    {
      "anonymous": false,
      "inputs": [
        {
          "components": [
            {
              "internalType": "uint256",
              "name": "propertyCount",
              "type": "uint256"
            },
            {
              "internalType": "address",
              "name": "owner",
              "type": "address"
            },
            {
              "internalType": "string",
              "name": "userId",
              "type": "string"
            },
            {
              "internalType": "string",
              "name": "name",
              "type": "string"
            },
            {
              "internalType": "string",
              "name": "description",
              "type": "string"
            },
            {
              "internalType": "string",
              "name": "propertyAddress",
              "type": "string"
            },
            {
              "internalType": "int256",
              "name": "price",
              "type": "int256"
            },
            {
              "internalType": "string",
              "name": "propertyOwnershipHash",
              "type": "string"
            },
            {
              "internalType": "bool",
              "name": "available",
              "type": "bool"
            },
            {
              "internalType": "uint256",
              "name": "timestamp",
              "type": "uint256"
            },
            {
              "internalType": "address",
              "name": "tenant",
              "type": "address"
            },
            {
              "internalType": "uint256",
              "name": "paymentDate",
              "type": "uint256"
            }
          ],
          "indexed": false,
          "internalType": "struct PropertyManagment.PropertyStruct",
          "name": "property",
          "type": "tuple"
        }
      ],
      "name": "PropertyAdded",
      "type": "event"
    },
    {
      "anonymous": false,
      "inputs": [
        {
          "indexed": false,
          "internalType": "uint256",
          "name": "propertyCount",
          "type": "uint256"
        },
        {
          "indexed": false,
          "internalType": "address",
          "name": "tenant",
          "type": "address"
        }
      ],
      "name": "TenantAdded",
      "type": "event"
    },
    {
      "anonymous": false,
      "inputs": [
        {
          "indexed": false,
          "internalType": "uint256",
          "name": "propertyCount",
          "type": "uint256"
        }
      ],
      "name": "TenantRemoved",
      "type": "event"
    },
    {
      "inputs": [
        {
          "internalType": "string",
          "name": "_userId",
          "type": "string"
        },
        {
          "internalType": "string",
          "name": "_name",
          "type": "string"
        },
        {
          "internalType": "string",
          "name": "_description",
          "type": "string"
        },
        {
          "internalType": "string",
          "name": "_propertyAddress",
          "type": "string"
        },
        {
          "internalType": "int256",
          "name": "_price",
          "type": "int256"
        },
        {
          "internalType": "string",
          "name": "_propertyOwnershipHash",
          "type": "string"
        }
      ],
      "name": "addProperty",
      "outputs": [],
      "stateMutability": "nonpayable",
      "type": "function"
    },
    {
      "inputs": [
        {
          "internalType": "uint256",
          "name": "_propertyCount",
          "type": "uint256"
        },
        {
          "internalType": "address",
          "name": "_tenant",
          "type": "address"
        },
        {
          "internalType": "uint256",
          "name": "_paymentDate",
          "type": "uint256"
        }
      ],
      "name": "addTenant",
      "outputs": [],
      "stateMutability": "nonpayable",
      "type": "function"
    },
    {
      "inputs": [
        {
          "internalType": "uint256",
          "name": "",
          "type": "uint256"
        }
      ],
      "name": "properties",
      "outputs": [
        {
          "internalType": "uint256",
          "name": "propertyCount",
          "type": "uint256"
        },
        {
          "internalType": "address",
          "name": "owner",
          "type": "address"
        },
        {
          "internalType": "string",
          "name": "userId",
          "type": "string"
        },
        {
          "internalType": "string",
          "name": "name",
          "type": "string"
        },
        {
          "internalType": "string",
          "name": "description",
          "type": "string"
        },
        {
          "internalType": "string",
          "name": "propertyAddress",
          "type": "string"
        },
        {
          "internalType": "int256",
          "name": "price",
          "type": "int256"
        },
        {
          "internalType": "string",
          "name": "propertyOwnershipHash",
          "type": "string"
        },
        {
          "internalType": "bool",
          "name": "available",
          "type": "bool"
        },
        {
          "internalType": "uint256",
          "name": "timestamp",
          "type": "uint256"
        },
        {
          "internalType": "address",
          "name": "tenant",
          "type": "address"
        },
        {
          "internalType": "uint256",
          "name": "paymentDate",
          "type": "uint256"
        }
      ],
      "stateMutability": "view",
      "type": "function"
    },
    {
      "inputs": [],
      "name": "propertyCount",
      "outputs": [
        {
          "internalType": "uint256",
          "name": "",
          "type": "uint256"
        }
      ],
      "stateMutability": "view",
      "type": "function"
    },
    {
      "inputs": [
        {
          "internalType": "uint256",
          "name": "_propertyCount",
          "type": "uint256"
        }
      ],
      "name": "removeTenant",
      "outputs": [],
      "stateMutability": "nonpayable",
      "type": "function"
    },
    {
      "inputs": [
        {
          "internalType": "uint256",
          "name": "_propertyCount",
          "type": "uint256"
        },
        {
          "internalType": "uint256",
          "name": "_paymentDate",
          "type": "uint256"
        }
      ],
      "name": "updatePaymentDate",
      "outputs": [],
      "stateMutability": "nonpayable",
      "type": "function"
    }
  ],
  "bytecode": "0x60806040526000805534801561001457600080fd5b50612172806100246000396000f3fe608060405234801561001057600080fd5b50600436106100625760003560e01c806377cb1cdf146100675780637dd2e99314610083578063a55c23431461009f578063c361a335146100bb578063c7936c98146100d9578063f7b10808146100f5575b600080fd5b610081600480360381019061007c91906119ba565b610130565b005b61009d60048036038101906100989190611abb565b610393565b005b6100b960048036038101906100b49190611ae4565b610994565b005b6100c3610f97565b6040516100d09190611d9b565b60405180910390f35b6100f360048036038101906100ee9190611b33565b610f9d565b005b61010f600480360381019061010a9190611abb565b61151b565b6040516101279c9b9a99989796959493929190611ddf565b60405180910390f35b600060405180610180016040528060005481526020013373ffffffffffffffffffffffffffffffffffffffff168152602001888152602001878152602001868152602001858152602001848152602001838152602001600115158152602001428152602001600073ffffffffffffffffffffffffffffffffffffffff168152602001600081525090508060016000805481526020019081526020016000206000820151816000015560208201518160010160006101000a81548173ffffffffffffffffffffffffffffffffffffffff021916908373ffffffffffffffffffffffffffffffffffffffff160217905550604082015181600201908051906020019061023b929190611870565b506060820151816003019080519060200190610258929190611870565b506080820151816004019080519060200190610275929190611870565b5060a0820151816005019080519060200190610292929190611870565b5060c0820151816006015560e08201518160070190805190602001906102b9929190611870565b506101008201518160080160006101000a81548160ff021916908315150217905550610120820151816009015561014082015181600a0160006101000a81548173ffffffffffffffffffffffffffffffffffffffff021916908373ffffffffffffffffffffffffffffffffffffffff16021790555061016082015181600b015590505060008081548092919061034e90612010565b91905055507fafa932fcd051728afa5454d2852e97ccb4352097dc62cf9d9b053c33bc676ed1816040516103829190611d79565b60405180910390a150505050505050565b60006001600083815260200190815260200160002060405180610180016040529081600082015481526020016001820160009054906101000a900473ffffffffffffffffffffffffffffffffffffffff1673ffffffffffffffffffffffffffffffffffffffff1673ffffffffffffffffffffffffffffffffffffffff16815260200160028201805461042490611fde565b80601f016020809104026020016040519081016040528092919081815260200182805461045090611fde565b801561049d5780601f106104725761010080835404028352916020019161049d565b820191906000526020600020905b81548152906001019060200180831161048057829003601f168201915b505050505081526020016003820180546104b690611fde565b80601f01602080910402602001604051908101604052809291908181526020018280546104e290611fde565b801561052f5780601f106105045761010080835404028352916020019161052f565b820191906000526020600020905b81548152906001019060200180831161051257829003601f168201915b5050505050815260200160048201805461054890611fde565b80601f016020809104026020016040519081016040528092919081815260200182805461057490611fde565b80156105c15780601f10610596576101008083540402835291602001916105c1565b820191906000526020600020905b8154815290600101906020018083116105a457829003601f168201915b505050505081526020016005820180546105da90611fde565b80601f016020809104026020016040519081016040528092919081815260200182805461060690611fde565b80156106535780601f1061062857610100808354040283529160200191610653565b820191906000526020600020905b81548152906001019060200180831161063657829003601f168201915b505050505081526020016006820154815260200160078201805461067690611fde565b80601f01602080910402602001604051908101604052809291908181526020018280546106a290611fde565b80156106ef5780601f106106c4576101008083540402835291602001916106ef565b820191906000526020600020905b8154815290600101906020018083116106d257829003601f168201915b505050505081526020016008820160009054906101000a900460ff1615151515815260200160098201548152602001600a820160009054906101000a900473ffffffffffffffffffffffffffffffffffffffff1673ffffffffffffffffffffffffffffffffffffffff1673ffffffffffffffffffffffffffffffffffffffff168152602001600b820154815250509050600181610100019015159081151581525050600081610140019073ffffffffffffffffffffffffffffffffffffffff16908173ffffffffffffffffffffffffffffffffffffffff168152505060008161016001818152505080600160008481526020019081526020016000206000820151816000015560208201518160010160006101000a81548173ffffffffffffffffffffffffffffffffffffffff021916908373ffffffffffffffffffffffffffffffffffffffff1602179055506040820151816002019080519060200190610858929190611870565b506060820151816003019080519060200190610875929190611870565b506080820151816004019080519060200190610892929190611870565b5060a08201518160050190805190602001906108af929190611870565b5060c0820151816006015560e08201518160070190805190602001906108d6929190611870565b506101008201518160080160006101000a81548160ff021916908315150217905550610120820151816009015561014082015181600a0160006101000a81548173ffffffffffffffffffffffffffffffffffffffff021916908373ffffffffffffffffffffffffffffffffffffffff16021790555061016082015181600b01559050507fe34363562f314023b6adc6cfd03e8e1408ccf1f0b9cc15e35d3b81ba469ce6ba826040516109889190611d9b565b60405180910390a15050565b60006001600085815260200190815260200160002060405180610180016040529081600082015481526020016001820160009054906101000a900473ffffffffffffffffffffffffffffffffffffffff1673ffffffffffffffffffffffffffffffffffffffff1673ffffffffffffffffffffffffffffffffffffffff168152602001600282018054610a2590611fde565b80601f0160208091040260200160405190810160405280929190818152602001828054610a5190611fde565b8015610a9e5780601f10610a7357610100808354040283529160200191610a9e565b820191906000526020600020905b815481529060010190602001808311610a8157829003601f168201915b50505050508152602001600382018054610ab790611fde565b80601f0160208091040260200160405190810160405280929190818152602001828054610ae390611fde565b8015610b305780601f10610b0557610100808354040283529160200191610b30565b820191906000526020600020905b815481529060010190602001808311610b1357829003601f168201915b50505050508152602001600482018054610b4990611fde565b80601f0160208091040260200160405190810160405280929190818152602001828054610b7590611fde565b8015610bc25780601f10610b9757610100808354040283529160200191610bc2565b820191906000526020600020905b815481529060010190602001808311610ba557829003601f168201915b50505050508152602001600582018054610bdb90611fde565b80601f0160208091040260200160405190810160405280929190818152602001828054610c0790611fde565b8015610c545780601f10610c2957610100808354040283529160200191610c54565b820191906000526020600020905b815481529060010190602001808311610c3757829003601f168201915b5050505050815260200160068201548152602001600782018054610c7790611fde565b80601f0160208091040260200160405190810160405280929190818152602001828054610ca390611fde565b8015610cf05780601f10610cc557610100808354040283529160200191610cf0565b820191906000526020600020905b815481529060010190602001808311610cd357829003601f168201915b505050505081526020016008820160009054906101000a900460ff1615151515815260200160098201548152602001600a820160009054906101000a900473ffffffffffffffffffffffffffffffffffffffff1673ffffffffffffffffffffffffffffffffffffffff1673ffffffffffffffffffffffffffffffffffffffff168152602001600b8201548152505090506000816101000190151590811515815250508281610140019073ffffffffffffffffffffffffffffffffffffffff16908173ffffffffffffffffffffffffffffffffffffffff1681525050818161016001818152505080600160008681526020019081526020016000206000820151816000015560208201518160010160006101000a81548173ffffffffffffffffffffffffffffffffffffffff021916908373ffffffffffffffffffffffffffffffffffffffff1602179055506040820151816002019080519060200190610e57929190611870565b506060820151816003019080519060200190610e74929190611870565b506080820151816004019080519060200190610e91929190611870565b5060a0820151816005019080519060200190610eae929190611870565b5060c0820151816006015560e0820151816007019080519060200190610ed5929190611870565b506101008201518160080160006101000a81548160ff021916908315150217905550610120820151816009015561014082015181600a0160006101000a81548173ffffffffffffffffffffffffffffffffffffffff021916908373ffffffffffffffffffffffffffffffffffffffff16021790555061016082015181600b01559050507f1f74b87f4acfef28e1dc62ca1456a7852c7e50010e0356f8245bc664cc9d9ccc8484604051610f89929190611db6565b60405180910390a150505050565b60005481565b60006001600084815260200190815260200160002060405180610180016040529081600082015481526020016001820160009054906101000a900473ffffffffffffffffffffffffffffffffffffffff1673ffffffffffffffffffffffffffffffffffffffff1673ffffffffffffffffffffffffffffffffffffffff16815260200160028201805461102e90611fde565b80601f016020809104026020016040519081016040528092919081815260200182805461105a90611fde565b80156110a75780601f1061107c576101008083540402835291602001916110a7565b820191906000526020600020905b81548152906001019060200180831161108a57829003601f168201915b505050505081526020016003820180546110c090611fde565b80601f01602080910402602001604051908101604052809291908181526020018280546110ec90611fde565b80156111395780601f1061110e57610100808354040283529160200191611139565b820191906000526020600020905b81548152906001019060200180831161111c57829003601f168201915b5050505050815260200160048201805461115290611fde565b80601f016020809104026020016040519081016040528092919081815260200182805461117e90611fde565b80156111cb5780601f106111a0576101008083540402835291602001916111cb565b820191906000526020600020905b8154815290600101906020018083116111ae57829003601f168201915b505050505081526020016005820180546111e490611fde565b80601f016020809104026020016040519081016040528092919081815260200182805461121090611fde565b801561125d5780601f106112325761010080835404028352916020019161125d565b820191906000526020600020905b81548152906001019060200180831161124057829003601f168201915b505050505081526020016006820154815260200160078201805461128090611fde565b80601f01602080910402602001604051908101604052809291908181526020018280546112ac90611fde565b80156112f95780601f106112ce576101008083540402835291602001916112f9565b820191906000526020600020905b8154815290600101906020018083116112dc57829003601f168201915b505050505081526020016008820160009054906101000a900460ff1615151515815260200160098201548152602001600a820160009054906101000a900473ffffffffffffffffffffffffffffffffffffffff1673ffffffffffffffffffffffffffffffffffffffff1673ffffffffffffffffffffffffffffffffffffffff168152602001600b820154815250509050818161016001818152505080600160008581526020019081526020016000206000820151816000015560208201518160010160006101000a81548173ffffffffffffffffffffffffffffffffffffffff021916908373ffffffffffffffffffffffffffffffffffffffff1602179055506040820151816002019080519060200190611415929190611870565b506060820151816003019080519060200190611432929190611870565b50608082015181600401908051906020019061144f929190611870565b5060a082015181600501908051906020019061146c929190611870565b5060c0820151816006015560e0820151816007019080519060200190611493929190611870565b506101008201518160080160006101000a81548160ff021916908315150217905550610120820151816009015561014082015181600a0160006101000a81548173ffffffffffffffffffffffffffffffffffffffff021916908373ffffffffffffffffffffffffffffffffffffffff16021790555061016082015181600b0155905050505050565b60016020528060005260406000206000915090508060000154908060010160009054906101000a900473ffffffffffffffffffffffffffffffffffffffff169080600201805461156a90611fde565b80601f016020809104026020016040519081016040528092919081815260200182805461159690611fde565b80156115e35780601f106115b8576101008083540402835291602001916115e3565b820191906000526020600020905b8154815290600101906020018083116115c657829003601f168201915b5050505050908060030180546115f890611fde565b80601f016020809104026020016040519081016040528092919081815260200182805461162490611fde565b80156116715780601f1061164657610100808354040283529160200191611671565b820191906000526020600020905b81548152906001019060200180831161165457829003601f168201915b50505050509080600401805461168690611fde565b80601f01602080910402602001604051908101604052809291908181526020018280546116b290611fde565b80156116ff5780601f106116d4576101008083540402835291602001916116ff565b820191906000526020600020905b8154815290600101906020018083116116e257829003601f168201915b50505050509080600501805461171490611fde565b80601f016020809104026020016040519081016040528092919081815260200182805461174090611fde565b801561178d5780601f106117625761010080835404028352916020019161178d565b820191906000526020600020905b81548152906001019060200180831161177057829003601f168201915b5050505050908060060154908060070180546117a890611fde565b80601f01602080910402602001604051908101604052809291908181526020018280546117d490611fde565b80156118215780601f106117f657610100808354040283529160200191611821565b820191906000526020600020905b81548152906001019060200180831161180457829003601f168201915b5050505050908060080160009054906101000a900460ff169080600901549080600a0160009054906101000a900473ffffffffffffffffffffffffffffffffffffffff169080600b015490508c565b82805461187c90611fde565b90600052602060002090601f01602090048101928261189e57600085556118e5565b82601f106118b757805160ff19168380011785556118e5565b828001600101855582156118e5579182015b828111156118e45782518255916020019190600101906118c9565b5b5090506118f291906118f6565b5090565b5b8082111561190f5760008160009055506001016118f7565b5090565b600061192661192184611eed565b611ebc565b90508281526020810184848401111561193e57600080fd5b611949848285611f9c565b509392505050565b600081359050611960816120f7565b92915050565b6000813590506119758161210e565b92915050565b600082601f83011261198c57600080fd5b813561199c848260208601611913565b91505092915050565b6000813590506119b481612125565b92915050565b60008060008060008060c087890312156119d357600080fd5b600087013567ffffffffffffffff8111156119ed57600080fd5b6119f989828a0161197b565b965050602087013567ffffffffffffffff811115611a1657600080fd5b611a2289828a0161197b565b955050604087013567ffffffffffffffff811115611a3f57600080fd5b611a4b89828a0161197b565b945050606087013567ffffffffffffffff811115611a6857600080fd5b611a7489828a0161197b565b9350506080611a8589828a01611966565b92505060a087013567ffffffffffffffff811115611aa257600080fd5b611aae89828a0161197b565b9150509295509295509295565b600060208284031215611acd57600080fd5b6000611adb848285016119a5565b91505092915050565b600080600060608486031215611af957600080fd5b6000611b07868287016119a5565b9350506020611b1886828701611951565b9250506040611b29868287016119a5565b9150509250925092565b60008060408385031215611b4657600080fd5b6000611b54858286016119a5565b9250506020611b65858286016119a5565b9150509250929050565b611b7881611f4a565b82525050565b611b8781611f4a565b82525050565b611b9681611f5c565b82525050565b611ba581611f5c565b82525050565b611bb481611f68565b82525050565b611bc381611f68565b82525050565b6000611bd482611f1d565b611bde8185611f28565b9350611bee818560208601611fab565b611bf7816120e6565b840191505092915050565b6000611c0d82611f1d565b611c178185611f39565b9350611c27818560208601611fab565b611c30816120e6565b840191505092915050565b600061018083016000830151611c546000860182611d5b565b506020830151611c676020860182611b6f565b5060408301518482036040860152611c7f8282611bc9565b91505060608301518482036060860152611c998282611bc9565b91505060808301518482036080860152611cb38282611bc9565b91505060a083015184820360a0860152611ccd8282611bc9565b91505060c0830151611ce260c0860182611bab565b5060e083015184820360e0860152611cfa8282611bc9565b915050610100830151611d11610100860182611b8d565b50610120830151611d26610120860182611d5b565b50610140830151611d3b610140860182611b6f565b50610160830151611d50610160860182611d5b565b508091505092915050565b611d6481611f92565b82525050565b611d7381611f92565b82525050565b60006020820190508181036000830152611d938184611c3b565b905092915050565b6000602082019050611db06000830184611d6a565b92915050565b6000604082019050611dcb6000830185611d6a565b611dd86020830184611b7e565b9392505050565b600061018082019050611df5600083018f611d6a565b611e02602083018e611b7e565b8181036040830152611e14818d611c02565b90508181036060830152611e28818c611c02565b90508181036080830152611e3c818b611c02565b905081810360a0830152611e50818a611c02565b9050611e5f60c0830189611bba565b81810360e0830152611e718188611c02565b9050611e81610100830187611b9c565b611e8f610120830186611d6a565b611e9d610140830185611b7e565b611eab610160830184611d6a565b9d9c50505050505050505050505050565b6000604051905081810181811067ffffffffffffffff82111715611ee357611ee26120b7565b5b8060405250919050565b600067ffffffffffffffff821115611f0857611f076120b7565b5b601f19601f8301169050602081019050919050565b600081519050919050565b600082825260208201905092915050565b600082825260208201905092915050565b6000611f5582611f72565b9050919050565b60008115159050919050565b6000819050919050565b600073ffffffffffffffffffffffffffffffffffffffff82169050919050565b6000819050919050565b82818337600083830152505050565b60005b83811015611fc9578082015181840152602081019050611fae565b83811115611fd8576000848401525b50505050565b60006002820490506001821680611ff657607f821691505b6020821081141561200a57612009612088565b5b50919050565b600061201b82611f92565b91507fffffffffffffffffffffffffffffffffffffffffffffffffffffffffffffffff82141561204e5761204d612059565b5b600182019050919050565b7f4e487b7100000000000000000000000000000000000000000000000000000000600052601160045260246000fd5b7f4e487b7100000000000000000000000000000000000000000000000000000000600052602260045260246000fd5b7f4e487b7100000000000000000000000000000000000000000000000000000000600052604160045260246000fd5b6000601f19601f8301169050919050565b61210081611f4a565b811461210b57600080fd5b50565b61211781611f68565b811461212257600080fd5b50565b61212e81611f92565b811461213957600080fd5b5056fea2646970667358221220bb83946c239d4e66ca314fcc8304e53f276e24e35fcdc39770bf3a95c870b73164736f6c63430008000033",
  "linkReferences": {},
  "deployedLinkReferences": {}
}